:020000040800F2
:10000000B0080020F51E0008CD1E0008CF1E000815
:10001000D11E0008D31E0008D51E000800000000F5
:10002000000000000000000000000000D71E0008D3
:10003000D91E000800000000DB1E0008DD1E0008BD
:100040001D1F0008211F0008251F0008291F000888
:100050002D1F0008311F0008351F0008391F000838
:100060003D1F0008411F0008451F0008491F0008E8
:100070004D1F0008511F0008551F0008591F000898
:100080005D1F0008611F0008651F0008691F000848
:100090006D1F0008711F0008751F0008791F0008F8
:1000A0007D1F0008811F0008851F0008891F0008A8
:1000B0008D1F0008911F0008951F0008991F000858
:1000C0009D1F0008A11F0008A51F0008A91F000808
:1000D000AD1F0008B11F0008B51F0008B91F0008B8
:1000E000BD1F0008C11F0008C51F0008C91F000868
:1000F000CD1F0008D11F0008D51F0008D91F000818
:10010000DD1F0008E11F0008E51F0008E91F0008C7
:10011000ED1F0008F11F0008F51F0008F91F000877
:10012000FD1F000801200008052000080920000824
:100130000D200008112000081520000819200008D3
:100140001D20000821200008252000082920000883
:100150002D20000831200008352000083920000833
:100160003D200008412000084520000849200008E3
:100170004D20000851200008552000085920000893
:100180005D20000861200008652000086920000843
:100190006D200008712000087520000879200008F3
:1001A0007D200008812000088520000889200008A3
:1001B0008D20000891200008952000089920000853
:1001C0009D200008A12000087CB50400012600F055
:1001D000FBFB0500002C01D101205AE0206A4028D9
:1001E00094F84000012801D1022052E0012084F857
:1001F000400094F8410000280AD1002084F8400013
:10020000200000F0E0FB41F28831200000F0B4FA59
:100210002068006830F4F850A168491E50EA0120B7
:1002200021680860A06C00902B0000222021200093
:1002300000F0A4FA0100C9B2002926D121680A6899
:1002400014490A40616852EA0162E1680A43E169BF
:100250000A43216A0A4321680A6021684A680E49F4
:100260000A40216952EA014261690A43A1690A43CD
:1002700021684A602168096851F001012268116013
:1002800000216164012184F84110002184F84010AC
:10029000C0B276BD2FFFFF00FEF8E0FF10B50400EE
:1002A000002C01D101201AE094F84000012801D16E
:1002B000022014E0012084F8400020680068400813
:1002C000400021680860200000F084FB002060648A
:1002D000002084F84100002084F84000002010BD78
:1002E0002DE9F84304000D0016005FF0010800F04E
:1002F0006BFB0700A8690028E8690028286A002825
:1003000094F84000012801D102203DE0012084F84A
:10031000400094F8410001282FD1002060640220A1
:1003200084F8410000963B0000222021200000F0CC
:1003300025FA81464846C0B2002820D10022290073
:10034000200000F044FA686A002812D100963B00B1
:1003500001220221200000F011FA81464846C0B275
:1003600000280CD102202168C860012084F84100D7
:1003700005E0012084F8410001E05FF0020900205F
:1003800084F840004846C0B2BDE8F2832DE9F84346
:1003900005000C001600002700F016FB80462868B8
:1003A00010F1200995F84000012801D102205EE0FB
:1003B000012085F8400095F84100012850D1002027
:1003C0006864002C45D0122085F841002868006937
:1003D000401CE86228680069401CA8626C622868BA
:1003E000406930F0406029684861E86A002815D00B
:1003F0000096434601220421280000F0BFF90700BF
:100400003800C0B2002809D1686A411C69620078CE
:1004100089F80000E86A401EE862E6E73800C0B2EA
:10042000002812D10096434601220221280000F044
:10043000A5F907003800C0B2002806D102202968BB
:10044000C860280000F04CF90700012085F8410041
:1004500008E0686C50F0080068640120070001E0C3
:1004600002200700002085F840003800C0B2BDE837
:10047000F2832DE9FC4705000C001600002700F070
:10048000A3FA80462868D0F81890286810F1200A4E
:1004900095F84000012801D1022063E0012085F891
:1004A000400095F84100012855D100206864002CD7
:1004B0004AD0222085F8410028680069401CA863C2
:1004C00028680069401C68632C632868406930F024
:1004D000406050F08060296848612868C0F8189032
:1004E000A86B002815D0009643460122062128005B
:1004F00000F044F907003800C0B2002809D1286B89
:10050000411C29639AF800100170A86B401EA86373
:10051000E6E73800C0B2002812D100964346012217
:100520000221280000F02AF907003800C0B2002894
:1005300006D102202968C860280000F0D1F8070021
:10054000012085F8410008E0686C50F008006864FC
:100550000120070001E002200700002085F840008C
:100560003800C0B2BDE8F6872DE9FC4704000D0055
:1005700016001F005FF0010800F026FA8146A86906
:100580000028E8690028286A002894F8400001281B
:1005900001D102204CE0012084F8400094F8410091
:1005A00001283ED100206064422084F84100009779
:1005B0004B4600222021200000F0E0F88246504601
:1005C000C0B200282FD13068216888627068216825
:1005D0004862B0682168C8622068016831F440014F
:1005E0003069014351F4800120680160F068A8621D
:1005F0005FF000622900200000F0E9F800974B4608
:1006000001220821200000F0B9F882465046C0B20D
:10061000002808D108202168C860012084F8410022
:1006200001E05FF0020A002084F840005046C0B2AA
:10063000BDE8F6872DE9F84304000D0016005FF0D1
:10064000010800F0C1F90700A8690028E86900283E
:10065000286A002894F84000012801D102203DE0DA
:10066000012084F8400094F8410001282FD1002097
:100670006064822084F84100A06C00903B0000225E
:100680002021200000F07AF881464846C0B20028B8
:100690001FD12068016831F00801706801432068AB
:1006A0000160706808280BD1306821680863102049
:1006B0002168C8602068006850F4801021680860D4
:1006C0005FF040622900200000F081F801E05FF057
:1006D0000209002084F840004846C0B2BDE8F28319
:1006E0007CB50400002500F06FF9060094F8410085
:1006F00080073ED5002084F840002068006840074D
:1007000011D52068006830F0040021680860E06BB3
:1007100000F07EF905002800C0B2002803D0606C0C
:1007200050F0040060642068006850F00200216806
:100730000860A06C0090330001220221200000F02C
:100740001DF805002800C0B200280BD10220216846
:10075000C860A06C0090330000222021200000F02F
:100760000DF805002800C0B2002802D1012084F84D
:1007700041002800C0B276BD816470472DE9F04188
:1007800005000E0090461F00069C286880683042D5
:1007900001D0012000E000204146C0B2C9B2884229
:1007A00012D014F1010FF0D0002C04D000F00CF99D
:1007B000C01B8442E9D2042085F84100686C50F0E7
:1007C00001006864012000E00020BDE8F08110B461
:1007D0004B6A002B06D0B2F1406F03D08B6A5B1ED0
:1007E000046823618B69002B79D00B6A002B3ED003
:1007F0008B680468E361CB69002B20D0CC6A0B6B5B
:100800001C434B6B1C434B6A1C434B6954EA8344A7
:100810000B691C430B6A1C43CB681C43CB691C430C
:100820008B691C430B681C43144303685C61B2F181
:10083000406F00F0C6804B680468A361C1E0CC6AD9
:100840000B6B1C434B6B1C434B6A1C434B6954EAB8
:1008500083440B691C430B6A1C43CB691C438B69A3
:100860001C430B681C43144303685C61A9E0CB691B
:10087000002B1ED0CC6A0B6B1C434B6B1C434B6A8A
:100880001C434B6954EA83440B6A1C43CB681C43EA
:10089000CB691C438B691C430B681C4314430368DE
:1008A0005C61B2F1406F00F08C804B680468A3611A
:1008B00087E0CC6A0B6B1C434B6B1C434B6A1C439D
:1008C0004B6954EA83440B6A1C43CB691C438B6914
:1008D0001C430B681C43144303685C6171E00B6AA2
:1008E000002B39D08B680468E361CB69002B1DD0E5
:1008F000CC6A0B6B1C434B6B1C434B6A1C434B6910
:1009000054EA83440B691C430B6A1C43CB681C43A9
:10091000CB691C438B691C43144303685C61B2F1CF
:10092000406F4ED04B680468A3614AE0CC6A0B6B01
:100930001C434B6B1C434B6A1C434B6954EA834476
:100940000B691C430B6A1C43CB691C438B691C431A
:10095000144303685C6134E0CB69002B1BD0CC6A84
:100960000B6B1C434B6B1C434B6A1C434B6954EA97
:1009700083440B6A1C43CB681C43CB691C438B69C3
:100980001C43144303685C61B2F1406F19D04B689B
:100990000468A36115E04B6A002B12D0CC6A0B6B84
:1009A0001C434B6B1C434B6A1C434B6954EA834406
:1009B0000B6A1C43CB691C438B691C4314430368BB
:1009C0005C6110BC7047704701480068704700BF09
:1009D000AC000020704730B4002513E050F8042B21
:1009E000D30744BFA9F101039A18091F042942F84B
:1009F000045BFAD213468C0744BF15809B1CC907C1
:100A000048BF1D7050F8041B0029E7D130BC704767
:100A100070B50400A56DFFF7D7FF060094F8350008
:100A2000022806D080206065002084F83400012070
:100A30003BE02068006830F01600216808602068FC
:100A4000406930F0800021684861206C002802D1A4
:100A5000A06C002805D02068006830F008002168EC
:100A6000086020680068400840002168086020682D
:100A70000068C0070ED5FFF7A7FF801B0628F6D336
:100A800020206065002084F83400032084F83500BD
:100A900003200AE03F21E06D8140A960002084F836
:100AA0003400012084F83500002070BD2DE9FC41A0
:100AB00004000026002C01D10120D8E12078C007D5
:100AC0006DD5DFF89405016811F00C01042909D0F7
:100AD000006810F00C0008280ED1DFF880050068CF
:100AE000400209D5DFF86C050068800357D56068BF
:100AF000002854D10120BAE16068B0F5803F06D1EA
:100B0000DFF85005016851F48031016026E060682B
:100B100000280AD1DFF83C05016831F4803101601A
:100B2000016831F48021016018E06068B0F5A02F01
:100B30000AD1DFF82005016851F4802101600168C5
:100B400051F48031016009E0DFF80805016831F4F3
:100B500080310160016831F4802101606068002803
:100B60000ED0FFF731FF0500DFF8E80400688003CE
:100B700015D4FFF729FF401B6528F5D3032076E144
:100B8000FFF722FF0500DFF8CC040068800306D5DC
:100B9000FFF71AFF401B6528F5D3032067E1207893
:100BA000800752D5DFF8B004016811F00C0F09D0AE
:100BB000006810F00C00082816D1DFF8A0040068C7
:100BC000400211D4DFF88C040168890704D5E1687C
:100BD000012901D001204AE1016831F0F8012269C0
:100BE00051EAC201016030E0E06800281AD0DFF865
:100BF0006474386850F001003860FFF7E5FE0500C6
:100C00003868800706D4FFF7DFFE401B0328F7D3C0
:100C100003202CE1386830F0F800216950EAC10067
:100C2000386012E0DFF82C74386840084000386003
:100C3000FFF7CAFE05003868800706D5FFF7C4FE37
:100C4000401B0328F7D3032011E12078000728D5A3
:100C50006069002812D0DFF80874386850F001008D
:100C60003860FFF7B1FE05003868800719D4FFF738
:100C7000ABFE401B0328F7D30320F8E0DFF8E07356
:100C80003868400840003860FFF79EFE050038686D
:100C9000800706D5FFF798FE401B0328F7D30320F3
:100CA000E5E02078400740F18780DFF8C0733868BE
:100CB000C0000AD4386850F080503860386810F0AE
:100CC00080500090009801200600DFF8A483D8F837
:100CD0000000C00513D4D8F8000050F48070C8F8A4
:100CE0000000FFF771FE0500D8F80000C00506D42B
:100CF000FFF76AFE401B6528F6D30320B7E0A06823
:100D0000012806D1DFF86C03016851F00101016090
:100D100025E0A06800280AD1DFF8580301684908D7
:100D200049000160016831F00401016017E0A0682A
:100D300005280AD1DFF83C03016851F00401016085
:100D4000016851F00101016009E0DFF82803016842
:100D5000490849000160016831F004010160A068A0
:100D6000002810D0FFF730FE0500DFF80803006808
:100D7000800719D4FFF728FE401B41F289318842D1
:100D8000F3D3032073E0FFF71FFE0500DFF8E40252
:100D90000068800708D5FFF717FE401B41F2893134
:100DA0008842F3D3032062E03000C0B2012803D1AF
:100DB000386830F080503860A069002856D0DFF8DD
:100DC0009802006810F00C0008284DD0A069022895
:100DD00037D1DFF88072386830F080703860FFF704
:100DE000F3FD80463868800107D5FFF7EDFDB0EBD5
:100DF00008000328F6D3032039E0E169206A0143A3
:100E0000606A51EA8011A06A4008401E51EA004120
:100E1000E06A51EA006151F00051DFF840020160E0
:100E2000386850F080703860FFF7CEFD05003868F4
:100E300080011BD4FFF7C8FD401B0328F7D3032014
:100E400015E0DFF81072386830F080703860FFF716
:100E5000BBFD05003868800108D5FFF7B5FD401BD4
:100E60000328F7D3032002E0012000E00020BDE8C2
:100E7000F6812DE9F04104000D000026002C01D17F
:100E800001209FE0DFF8F071386810F00F00A842F1
:100E90000BD238680009000128433860386810F028
:100EA0000F00A84201D001208CE02078800719D5DE
:100EB0002078400705D5DFF8A001016851F4E05122
:100EC00001602078000705D5DFF88C01016851F436
:100ED00060410160DFF880110A6832F0F002A0681A
:100EE00002430A602078C00737D56068012806D120
:100EF000DFF860010068800311D4012062E06068BF
:100F0000022806D1DFF84C010068800107D40120D7
:100F100058E050480068800701D4012052E0DFF813
:100F20003881D8F800108908890060680143C8F842
:100F30000010FFF749FD0600D8F8000010F00C0083
:100F40006168B0EB810F08D0FFF73EFD801B41F2D6
:100F500089318842F0D3032034E0386810F00F0064
:100F600085420BD238680009000128433860386890
:100F700010F00F00A84201D0012023E020784007A4
:100F800006D535490A6832F4E052E06802430A6047
:100F90002078000707D53048016831F460412269A4
:100FA00051EAC201016000F00FF834492A4A126880
:100FB000C2F30312895CC8402B4908600F2000F07F
:100FC00061F80020BDE8F0812DE9F0410024002502
:100FD000002600272048006810F00C00002804D0EC
:100FE000042804D0082804D031E01E4830E024480A
:100FF0002EE0DFF86880D8F8000010F03F00040011
:10100000D8F8000040020CD5D8F80000C0F38810D2
:101010001B49A1FB00012200002300F059F8050044
:101020000BE0D8F80000C0F388100E49A1FB0001C6
:101030002200002300F04CF80500D8F80000C0F3AF
:101040000140401C40000600B5FBF6F000E00548FA
:10105000BDE8F08100380240083802400438024000
:10106000743802400024F40004000020403802409C
:101070000070004070380240003C0240E41E00084E
:1010800040787D0110B504004FF47A700D4909785D
:10109000B0FBF1F00C490968B1FBF0F000F0B0F9D9
:1010A000002801D001200CE0102C09D200222100E0
:1010B0005FF0FF3000F08FF904480460002000E08A
:1010C000012010BD080000200400002000000020C6
:1010D000BBBBE1B1B2F5803F80F07E80022A1ED911
:1010E0008C46B1FBF2F102FB11C31B0443EA10432F
:1010F000B3FBF2FC02FB1C3380B240EA0343B3FBB8
:10110000F2F002FB103240EA0C4000237047022A42
:1011100005D98446B0FBF2F002FB10C270474AB119
:1011200005D100F0010249085FEA30007047002253
:101130000023704700F078B90B0002000021002066
:101140007047904271EB030CF6D3B3F5803F2FD27A
:10115000F0B5B3FA83F7B1FA81F4A7F10F0E3D1B96
:101160005340CEF1200602FA0EF2F3415340B5F19E
:101170000F0746D80F3C2C444140C4F12006A04044
:10118000F1414140B1FBF3F603FB1611A2FB06450A
:10119000001BA94102D2761E8018594180EA010243
:1011A00021FA0EF362FA0EF200215A403046F0BDE9
:1011B00030B4B1FBF3FC03FB1C11A2FB0C45001B7C
:1011C000A94103D2ACF1010C8018594130BC024650
:1011D0000B46604600217047B2F1807F65D3F0B5C1
:1011E000B2FA82F7B1FA81F4C7F10F063D1B22FA79
:1011F00006F307F1110EF24120355A40B5F10F0701
:10120000B8D94140C4F12006A040F1414140B1FBB2
:10121000F3FC03FB1C11A2FB0C45001BA94103D2EC
:10122000BCF1010C801859410F2F12D30F3FC90395
:1012300041EA5041B1FBF3F603FB1611A2FB064550
:10124000D4EBC030A94102D2761E8018594146EA3B
:10125000CC3C07B34140C7F12006B840F1414140C2
:10126000B1FBF3F603FB1611A2FB0645001BA941D7
:1012700002D2761E8018594180EA010221FA0EF34B
:10128000C7F1200462FA0EF20CFA07F05A402CFA69
:1012900004F13043F0BD80EA010221FA0EF300218F
:1012A00062FA0EF260465A40F0BD8C46B1FBF2F194
:1012B00002FB11C31B0243EA1063B3FBF2FC02FB07
:1012C0001C331B024CEA002043EA1063B3FBF2FC20
:1012D00002FB1C331B024CEA002043EA1063B3FB01
:1012E000F2FC02FB1C331B024CEA002043EA1063B1
:1012F000B3FBF2FC02FB1C324CEA002000237047D7
:1013000010B410F00703DFF8044122684FF6FF0124
:101310000A40DFF8FC1051EA03210A43226010BCA6
:101320007047DFF8E8000068C0F30220704710B48F
:10133000020052B2002A05D40A01364B040064B2FE
:101340001A5508E00A01344B040064B214F00F048B
:10135000234403F8042C10BC704770B4030013F04E
:101360000704D4F10700052801D3042001E0D4F1DB
:101370000700251D072D01D2002500E0E51E0126EE
:1013800016FA00F0401E0140A94016FA05F56D1E40
:101390002A401143080070BC704710B50400601E5D
:1013A000B0F1807F01D301200EE0601E1B49086070
:1013B0000F215FF0FF30FFF7BAFF002018490860E7
:1013C000072018490860002010BD10B50400200057
:1013D000FFF796FF10BD2DE9F04104000D00160047
:1013E0000027FFF79EFF8046320029004046FFF7A6
:1013F000B4FF0100200040B2FFF799FFBDE8F08183
:1014000010B504002000FFF7C8FF10BD0CED00E090
:101410000000FA0500E400E018ED00E014E000E050
:1014200018E000E010E000E07047000010B5CC4C80
:10143000CC4820602000FEF731FF002801D00120B9
:1014400055E000F095F9C8480021C1610021016212
:1014500000214162002141610021C162002101633C
:10146000002141634FF40051C160C0480021016177
:101470000121C160102181605FF480014161012080
:1014800060600420A0601020E0608020B0FA80F04E
:10149000401E20614FF4A06060610020A061002028
:1014A000E061002020622000FEF78EFE002801D0BF
:1014B00001201CE0200000F01BF8002801D00120D2
:1014C00015E0200000F0ACF8002801D001200EE06B
:1014D000200000F04DF8002801D0012007E0200096
:1014E00000F028F8002801D0012000E0002010BD05
:1014F00070B504009C4D4FF48070A8616620286090
:101500000020686241F28836320029002000FEF790
:10151000E7FE002801D001200BE09920286032006E
:1015200029002000FEF7DCFE002801D0012000E0A9
:10153000002070BD1CB504008B494FF440708861D9
:10154000EB2008604FF44060C8615FF04070486273
:101550000A20486100200190002000906A46200087
:10156000FFF768F8002801D0012000E0002016BD38
:1015700030B58FB004004FF4807007908520019043
:1015800000200890002009905FF080700A900020F1
:10159000069001200B9000200C9000200D90002060
:1015A0000E9041F288352A0001A92000FEF798FE2E
:1015B000002801D0012031E02A0069462000FEF712
:1015C00058FF002801D0012028E0200000F09EF8FC
:1015D000002801D0012021E0812001909DF8001019
:1015E00011F00F010A225FF07060B0FA80F08240C3
:1015F00011438DF800102A0001A92000FEF770FEAB
:10160000002801D0012009E02A0069462000FEF7E9
:10161000BDFE002801D0012000E000200FB030BD49
:10162000F0B595B004004FF4807007900020099049
:101630000020069000200C9000200D9000200E90BD
:1016400010201190002013905FF48000149065200A
:101650000190002008905FF080750A9501200B90A2
:101660003F4E41F288373A0001A93000FEF738FEBC
:10167000002801D0012047E03A0069463000FEF71B
:10168000F8FE002801D001203EE006200190002055
:101690000A903A0001A93000FEF722FE002801D08E
:1016A000012031E002200F900220109001201290C2
:1016B000052001900A953B000FAA01A93000FEF712
:1016C00053FF002801D001201EE06120019001207D
:1016D0000B909DF8000010F03F0050F040008DF896
:1016E00000003A0001A93000FEF7FAFD002801D001
:1016F000012009E03A0069463000FEF747FE002865
:1017000001D0012000E0002015B0F0BD70B504004C
:10171000154D4FF44070A8610620286000206862D3
:1017200041F28836320029002000FEF7D9FD00285A
:1017300001D0012013E00D4A022010600220506009
:10174000052028605FF040706862330029002000A7
:10175000FEF70AFF002801D0012000E0002070BD44
:101760000C000020001000A0580000209000002075
:1017700010B586B03648016851F00201016000687A
:1017800010F00200059005983248016851F00201FE
:101790000160016831F0020101602F48016851F0D9
:1017A00002010160016811F00201059105990168CB
:1017B00051F008010160016811F0080105910599D7
:1017C000016851F010010160006810F010000590F0
:1017D0000598402000900A200490022001900120EA
:1017E0000290022003901D4C6946200000F03CF856
:1017F00004200090092004900020029069462000F7
:1018000000F032F84FF40060009009200490144C6E
:101810006946200000F028F84FF48050009009201D
:1018200004906946200000F01FF804200090092071
:10183000049069460B4800F017F84FF400500090F0
:10184000092004906946200000F00EF806B010BD93
:101850003838024018380240303802400004024054
:10186000000C0240001002402DE9F8410022002344
:10187000002400260025102D80F00B81012717FA87
:1018800005F213000A681A4014009C4240F0FF80E1
:101890004A68022A02D04A68122A1FD12A00D208B6
:1018A00000EB8202D2F820C05FF00F0E15F00702A5
:1018B000D2B292001EFA02FE3CEA0E0CD1F810E001
:1018C00015F00702D2B292001EFA02FE5EEA0C0C7C
:1018D00066462A00D20800EB82021662D0F800C0E9
:1018E0005FF0030E2A00D2B252001EFA02F23CEA66
:1018F000020C91F8048018F003082A00D2B25200BA
:1019000018FA02F858EA0C0CC0F800C04A68012A1C
:1019100008D04A68022A05D04A68112A02D04A68CB
:10192000122A1BD186682A00D2B252001EFA02F295
:101930009643D1F80C802A00D2B2520018FA02F86D
:1019400058EA060686604268AF40BA434F68C7F35C
:101950000017AF403A439446C0F804C0C6682A0056
:10196000D2B252001EFA02FE36EA0E068F682A0034
:10197000D2B2520097403E43C6604A68D20040F15E
:101980008680DFF81421176857F4804717601268C3
:1019900012F480420092009ADFF800C12A009208F7
:1019A0005CF822705FF00F0E15F00302D2B29200C5
:1019B0001EFA02FE37EA0E07DFF8E420904201D15A
:1019C000002631E0DFF8DC20904201D101262BE037
:1019D000DFF8D420904201D1022625E0DFF8CC20A8
:1019E000904201D103261FE0DFF8C420904201D1CC
:1019F000042619E02F4A904201D1052614E02E4A10
:101A0000904201D106260FE02C4A904201D10726D0
:101A10000AE02B4A904201D1082605E0294A90426B
:101A200001D1092600E00A26F6B215F00302D2B26F
:101A30009200964037432A0092084CF82270224EBA
:101A40003268A243D1F804C05FEACC3C00D52243FF
:101A500032601E4F3E68A643D1F804C05FEA8C3C5A
:101A600000D526433E601A4F3A68A243D1F804C01D
:101A70005FEACC2C00D522433A60164F3E68A6435D
:101A8000D1F804C05FEA8C2C00D526433E606D1C63
:101A9000F1E6BDE8F1810000443802400838014019
:101AA000000002400004024000080240000C024016
:101AB000001002400014024000180240001C0240C6
:101AC0000020024000240240003C0140043C014050
:101AD000083C01400C3C0140BFF34F8FBFF36F8FB8
:101AE000002049490860BFF34F8FBFF36F8F47480D
:101AF000016851F400310160BFF34F8FBFF36F8F66
:101B00007047BFF34F8FBFF36F8F4048016831F4C8
:101B10000031016000203C490860BFF34F8FBFF3E4
:101B20006F8F704710B4002039490860BFF34F8FA2
:101B300038480168C1F34E32C1F3C900030043F6CF
:101B4000E07010EA421050EA8370334C20601800B5
:101B5000431E0028F3D11000421E0028ECD1BFF331
:101B60004F8F2A48046854F480340460BFF34F8FC9
:101B7000BFF36F8F10BC704710B400202449086079
:101B8000BFF34F8F2148016831F480310160BFF30A
:101B90004F8F20480168C1F34E32C1F3C9000300E2
:101BA00043F6E07010EA421050EA83701B4C20604C
:101BB0001800431E0028F3D11000421E0028ECD16B
:101BC000BFF34F8FBFF36F8F10BC704780B500F02D
:101BD00072F800F07DF800F030F800F027F80028E7
:101BE00001D000F029F800F06CF800200C490860E2
:101BF0000C480D49096801605FF01041096881F3E4
:101C0000088800688047FEE750EF00E014ED00E030
:101C100084ED00E080ED00E060EF00E074EF00E0B4
:101C200010E000E0A80000200400009010B500249F
:101C3000FFF7FCFB204310BDFEE730B591B0002458
:101C4000012005905FF48030069002200B905FF435
:101C500080000C9019200D904FF4D8700E90022047
:101C60000F900820109005A8FEF720FF050028001F
:101C7000C0B2002800D0FEE700F03EF804002000CB
:101C8000C0B2002800D0FEE70F2000900220019093
:101C9000002002904FF4A05003904FF48050049025
:101CA00006216846FFF7E5F80100C9B2002900D017
:101CB000FEE711B030BD80B5FFF70EFFFFF732FF32
:101CC00001BD80B5FFF71DFFFFF756FF01BD000006
:101CD00080B50748016851F4807101600320FFF767
:101CE00074FB0F20FFF7CEF900F004F8002002BDCE
:101CF000003C0240704700007CB500241B4801688E
:101D000051F080510160006810F080500090009800
:101D1000154E306850F480303060FEF755FE0500F7
:101D2000104C2068C00308D4FEF74EFE401B40F262
:101D3000E9318842F4D3032013E0306850F40030D6
:101D40003060FEF741FE06002068800308D4FEF7ED
:101D50003BFE801B40F2E9318842F5D3032000E0CE
:101D6000002076BD04700040007000404038024002
:101D70000F48016851F4700101600E49086850F085
:101D80000100086000200C4A10600A680B480240FD
:101D90000A600B480B4A1060086830F48020086025
:101DA0000020094908605FF000600849086070473A
:101DB00088ED00E00038024008380240FFFFF6FEE0
:101DC00010300024043802400C38024008ED00E0D6
:101DD00030B450F8041B79B10268436802440830FB
:101DE000DC0744BFA9F10104E31852F8045B43F88F
:101DF000045B091FF9D1ECE730BC704710B5074907
:101E000079441831064C7C44163404E00A68081DF5
:101E1000114488470146A142F8D110BD2C000000B2
:101E20004C0000004EF68851CEF20001086840F4E4
:101E300070000860BFF34F8FBFF36F8F4FF00070DB
:101E4000E1EE100A704700008FEBFFFFA4000000D6
:101E50000C0000200000000079FFFFFF0C000000D4
:101E6000B0000000000000200000000000F00DF8AD
:101E7000002801D0FFF7C2FFAFF300800020AFF3CE
:101E80000080FFF7A3FE00F002F80120704700F089
:101E900001B800000746384600F002F8FBE70000F2
:101EA00080B5AFF30080024A11001820ABBEFBE7FB
:101EB0002600020003480168034A1278891801606D
:101EC000704700BFAC000020080000207047FEE70C
:101ED000FEE7FEE7FEE770477047704780B5FFF703
:101EE000E9FF01BD00000000000000000102030442
:101EF000060708090148804701480047711D00088E
:101F0000051F0008AFF30080FFF78CFFFFF7AEFF5F
:101F1000100000000024F40001000000FFF7FEBFE5
:101F2000FFF7FEBFFFF7FEBFFFF7FEBFFFF7FEBFE5
:101F3000FFF7FEBFFFF7FEBFFFF7FEBFFFF7FEBFD5
:101F4000FFF7FEBFFFF7FEBFFFF7FEBFFFF7FEBFC5
:101F5000FFF7FEBFFFF7FEBFFFF7FEBFFFF7FEBFB5
:101F6000FFF7FEBFFFF7FEBFFFF7FEBFFFF7FEBFA5
:101F7000FFF7FEBFFFF7FEBFFFF7FEBFFFF7FEBF95
:101F8000FFF7FEBFFFF7FEBFFFF7FEBFFFF7FEBF85
:101F9000FFF7FEBFFFF7FEBFFFF7FEBFFFF7FEBF75
:101FA000FFF7FEBFFFF7FEBFFFF7FEBFFFF7FEBF65
:101FB000FFF7FEBFFFF7FEBFFFF7FEBFFFF7FEBF55
:101FC000FFF7FEBFFFF7FEBFFFF7FEBFFFF7FEBF45
:101FD000FFF7FEBFFFF7FEBFFFF7FEBFFFF7FEBF35
:101FE000FFF7FEBFFFF7FEBFFFF7FEBFFFF7FEBF25
:101FF000FFF7FEBFFFF7FEBFFFF7FEBFFFF7FEBF15
:10200000FFF7FEBFFFF7FEBFFFF7FEBFFFF7FEBF04
:10201000FFF7FEBFFFF7FEBFFFF7FEBFFFF7FEBFF4
:10202000FFF7FEBFFFF7FEBFFFF7FEBFFFF7FEBFE4
:10203000FFF7FEBFFFF7FEBFFFF7FEBFFFF7FEBFD4
:10204000FFF7FEBFFFF7FEBFFFF7FEBFFFF7FEBFC4
:10205000FFF7FEBFFFF7FEBFFFF7FEBFFFF7FEBFB4
:10206000FFF7FEBFFFF7FEBFFFF7FEBFFFF7FEBFA4
:10207000FFF7FEBFFFF7FEBFFFF7FEBFFFF7FEBF94
:10208000FFF7FEBFFFF7FEBFFFF7FEBFFFF7FEBF84
:10209000FFF7FEBFFFF7FEBFFFF7FEBFFFF7FEBF74
:0420A000FFF7FEBF89
:0200000490006A
:1000000000000520597C0090D7260090D92600904A
:10001000DB260090DD260090DF2600900000000027
:10002000000000000000000000000000717000905F
:10003000E1260090000000001171009075710090A1
:10004000A97C0090A97C0090A97C0090A97C0090DC
:10005000A97C0090A97C0090A97C0090A97C0090CC
:10006000A97C0090A97C0090A97C0090A97C0090BC
:10007000A97C0090A97C0090A97C0090A97C0090AC
:10008000A97C0090A97C0090A97C0090A97C00909C
:10009000A97C0090A97C0090A97C0090A97C00908C
:1000A000A97C0090A97C0090A97C0090A97C00907C
:1000B000A97C0090A97C0090A97C0090A97C00906C
:1000C000A97C0090A97C0090A97C0090A97C00905C
:1000D000A97C0090A97C0090A97C0090A97C00904C
:1000E000A97C0090A97C0090A97C0090A97C00903C
:1000F000A97C0090A97C0090A97C0090A97C00902C
:10010000A97C0090A97C0090A97C0090A97C00901B
:10011000A97C0090A97C0090E5260090A97C009025
:10012000A97C0090A97C0090A97C0090A97C0090FB
:10013000A97C0090A97C0090A97C0090A97C0090EB
:10014000A97C0090A97C0090A97C0090A97C0090DB
:10015000A97C0090A97C0090A97C0090A97C0090CB
:10016000A97C0090A97C0090A97C0090A97C0090BB
:10017000A97C0090A97C0090A97C0090A97C0090AB
:10018000A97C0090A97C0090A97C0090A97C00909B
:10019000A97C0090A97C0090A97C0090A97C00908B
:1001A000F1260090A97C0090FD260090A97C00908B
:1001B000A97C0090A97C0090A97C0090A97C00906B
:0801C000A97C0090A97C0090CD
:1001D00010B5054C237833B9044B13B10448AFF381
:1001E00000800123237010BD2401002000000000C6
:1001F00070F4019008B5034B1BB103490348AFF3FA
:10020000008008BD000000002801002070F401906B
:1002100053B94AB9002908BF00281CBF4FF0FF316D
:100220004FF0FF3000F072B9ADF1080C6DE904CE6B
:1002300000F006F8DDF804E0DDE9022304B07047C1
:100240002DE9F047089E04468846002B4BD18A4290
:10025000154667D9B2FA82F24AB1C2F1200701FA13
:1002600002F320FA07F7954047EA030894404FEA63
:10027000154E230CB8FBFEF71FFA85FC0EFB178802
:1002800043EA084307FB0CF1994209D9EB1807F13F
:10029000FF3080F01B81994240F21881023F2B44CD
:1002A0005B1AA4B2B3FBFEF00EFB103344EA034426
:1002B00000FB0CFCA44509D92C1900F1FF3380F098
:1002C0000781A44540F2048102382C4440EA0740EB
:1002D000A4EB0C0400271EB1D4400023C6E9004360
:1002E0003946BDE8F0878B4209D9002E00F0EB803B
:1002F0000027C6E9000138463946BDE8F087B3FA61
:1003000083F7002F47D18B4202D3824200F2FA805A
:10031000841A61EB030301209846002EE0D0C6E961
:100320000048DDE702B9FFDEB2FA82F2002A40F0AF
:100330008F80491B4FEA154E1FFA85F80127B1FB44
:10034000FEFC230C0EFB1C1143EA014308FB0CF1DD
:10035000994207D9EB180CF1FF3002D2994200F212
:10036000CD808446591AA3B2B1FBFEF00EFB1014E7
:1003700043EA044408FB00F8A04507D92C1900F112
:10038000FF3302D2A04500F2B6801846A4EB080461
:1003900040EA0C409FE7C7F1200CBB4022FA0CFE5C
:1003A0004EEA030E01FA07F420FA0CF521FA0CF3D9
:1003B0004FEA1E482543B3FBF8F92C0C08FB193310
:1003C0001FFA8EFA44EA034309FB0AF49C4202FA3C
:1003D00007F200FA07F10BD91EEB030309F1FF3016
:1003E00080F087809C4240F28480A9F10209734426
:1003F0001B1BADB2B3FBF8F008FB103345EA034416
:1004000000FB0AFAA24508D91EEB040400F1FF33F1
:100410006BD2A24569D90238744440EA0940A0FB76
:100420000289A4EB0A044C45C2464B4654D351D032
:10043000002E69D0B1EB0A0564EB030404FA0CFC4E
:10044000FD40FC404CEA0505C6E90054002747E79B
:10045000C2F1200320FA03F7954001FA02F021FAD5
:1004600003F34FEA154E3843010CB3FBFEF71FFAB6
:1004700085F80EFB173341EA034107FB08F38B4273
:1004800004FA02F407D9691807F1FF3C2FD28B4216
:100490002DD9023F2944CB1A81B2B3FBFEF00EFBEB
:1004A000103341EA034100FB08F38B4207D9691876
:1004B00000F1FF3C17D28B4215D902382944C91AE2
:1004C00040EA07473BE73746304609E70746E7E695
:1004D0001846FBE64145ABD2B8EB020A69EB0E02C7
:1004E00001381346A4E76046E9E7184695E76746F2
:1004F000D1E781467CE702382C4447E7ACF1020C97
:100500002B442FE7384608E73746E9E6704700BF37
:1005100001F0FF01102A2BDB10F0070F08D010F8B4
:10052000013B013A8B422DD010F0070F42B3F6D1B8
:10053000F0B441EA012141EA014122F007047FF0D1
:1005400000070023F0E80256083C85EA010586EA28
:10055000010685FA47F5A3FA87F586FA47F6A5FA64
:1005600087F68EB9EED1F0BC01F0FF0102F0070270
:1005700032B110F8013B013A83EA010313B1F8D11B
:100580000020704701387047002D06BF35460338FC
:10059000073815F0010F07D1013015F4807F02BF35
:1005A000013015F4C03F0130F0BC0138704700BF86
:1005B000704704387047704710B5044610211DF08D
:1005C00093F8204610BDA0F10400F5E70022C160B9
:1005D0008260044A10B502F10804203204604260CF
:1005E00010BD00BFD0F4019070477047704770474E
:1005F000704700F080B810B504464FF44A711DF002
:1006000073F8204610BD000010B5044600F0CCF889
:10061000014B2046236010BD00F5019000220260CE
:1006200070477047704700F596730868496803C3C0
:100630007047704710B504464FF4AC711DF054F884
:10064000204610BD10B50446D0F85401FFF7E9FF6D
:100650002046BDE810400BF0FDB810B50446D0F8B8
:100660003C0158B10368DB68984738B1D4F83C01C5
:1006700003689B6898470023C4F83C3110BD000014
:1006800010B5044600F0F4F9014B2046236010BD7C
:1006900034F501900020704781807047C180704719
:1006A00001817047418170477047704770477047BC
:1006B0007047C388D21A8388C91A036812B209B274
:1006C00010B45DF8044B1B6D18474FF6FF73838120
:1006D0004FF0FF3303621368C361106070477047C7
:1006E000704790F825201AB190F8242002B11860C4
:1006F000704770477047704710B5044608211CF0DA
:10070000F3FF204610BD10B504464FF44A711CF0AB
:10071000EBFF204610BD70B5036804461546DB6A42
:1007200098472368294620461B6BBDE87040184750
:1007300070B504461E46BDF91050FFF7ECFF236864
:10074000314620465A6B90472368294620469B6BCA
:10075000BDE87040184700000121002280F82510F4
:100760000F49828001600F49C28081624FF6FF719C
:10077000028181854FF47F0142818281C2810282A0
:100780004282C2610284428480F824200263416371
:1007900080F8382080F83920C0E90522704700BF72
:1007A0003C10029078F501902DE9F04F04468BB093
:1007B00000250CF029FD2246884BE5630AAF42F87C
:1007C000403B04F16C08864B4FF0010BA4F84450F9
:1007D00040462364FF23A4F8465004F5A67684F827
:1007E00066304FF6FF73A4F8485004F53B7A27F8BB
:1007F000083D3946A4F84A504FF48879A4F84C5083
:10080000A4F84E50A4F85050A4F85250E565A4F84E
:100810006050A4F8625084F86450A56684F865B00E
:100820000692C4E9155508F067FE04F198031846CE
:100830000393FFF791FF04F1D40318460493FFF7E5
:100840008BFF04F5887318460593FFF785FF304644
:1008500009F09AFA5046FFF77FFF2A46CDF800903C
:10086000294606984FF4F073FFF762FF4FF07F437D
:1008700039464046A3664FF00303ADF8203009F037
:10088000DAFB4FF4F0732A46CDF800902946404633
:100890004FF0FF39FFF74CFF2946404608F0F2FDC4
:1008A0002E2203984FF4CE71FFF735FF4D4BA4F87D
:1008B000CC5039460398C4F8C8900893ADF824503A
:1008C00009F0F5F9822204984FF4B171FFF723FF84
:1008D000444BA4F8085139460498C4F8049108938D
:1008E000ADF824B009F0E3F9CE2205984FF4A071D9
:1008F000FFF711FF3B4BA4F84451394608930223FC
:100900000598C4F84091ADF82430079309F0CFF969
:10091000079B39463046ADF8203007F0C5FBEE2383
:100920002A46294630460093FFF702FF30467322DD
:10093000782109F0D4FA30465A226FF0590109F0B3
:1009400057FB2B46009564222946304607F0DEFA15
:100950002946304609F0F2FA33230D222946304663
:1009600009F0A8FA5946304609F046FA5946304689
:1009700009F045FA882250466B21FFF7CCFE194B4F
:10098000A4F82053251D08934FF003033946504621
:10099000C4F81C93ADF8243009F089F9069928466B
:1009A00007F084FC4146284607F080FC039928465E
:1009B00007F07CFC0499284607F078FC0599284646
:1009C00007F074FC3146284607F070FC2846514673
:1009D00007F06CFC20460BB0BDE8F08F88F5019065
:1009E000E410029078F501907047704741607047BD
:1009F00070470123037270477047704710B4C46892
:100A0000034641686210E4079B6801EB020048BF9F
:100A10008A585DF8044B48BFD358184743682BB138
:100A200083682BB9C06800F0010070471846704712
:100A30000120704710B504460C211CF055FE2046DD
:100A400010BD10B504464FF4AC711CF04DFE2046AD
:100A500010BD10B5044610211CF046FE204610BD06
:100A600010B50BF01FF80368BDE810401B6B18476A
:100A7000F8B5044617460E460BF07EF8144B0025D9
:100A8000C4F854611C602946124B134E2360134B6B
:100A90003068C4F83851C4F83C51C4F84031C4F847
:100AA0004451C4F84851C4F84C51C4F8507103681B
:100AB0009B689847284600F0B3FA336893F876208D
:100AC0000AB1D86C00B9986812F03FFC2046F8BD16
:100AD000C4220120D4F5019078220120BCF50190B8
:100AE000064BC0F84401C0F848310023C0F84C312F
:100AF00000F5A073C0F83C31704700BF410C009076
:100B00002DE9F047074690689946884603681546E0
:100B1000DDF820A01B6A9847B0F54A7F05D2424B0A
:100B2000A321424A42481DF0C5FC686803681B6A5D
:100B300098470F2803D83F4BA4213C4AF2E7E868C6
:100B400003681B6A98470B2803D83B4BA521374AFB
:100B5000E8E70AF0A7FF0AF0F3FFD9F8000010B1A8
:100B60000368DB689847D9F8000010B103681B6878
:100B70009847386810B103685B699847D8F8000057
:100B800010B103685B689847386810B103681B6848
:100B90009847D8F8000010B103689B689847E86848
:100BA000002103685B6A9847044620B10023436034
:100BB0000372224B0360A868002103685B6A9847B0
:100BC000064608B1FFF720FD6868002103685B6AEC
:100BD0009847054610B13146FFF7F8FCC9F80040C8
:100BE000C8F800503E60E5B12B1DCAF80030304611
:100BF000C5F808A03368F563DB6898472B6828467A
:100C00001B689847214630460CF07BFC2368204641
:100C10001B699847236820465B6998472846BDE8CA
:100C2000F0872B46E1E700BF34F6019049F80190C8
:100C3000C2F6019003F70190A6F7019018F6019013
:100C400007B5D0F8543100F59C710093044BD0F8EF
:100C500050210448FFF754FF03B05DF804FB00BFC8
:100C6000B8220120B422012013B5002249B102AB01
:100C7000019203F8052D0268946801AAA04702B00A
:100C800010BD0846FBE7408970478089704780881F
:100C9000704783798088184480B27047C07900F02B
:100CA0007F007047C079C0097047006A7047406A8A
:100CB000704770478B888069DB0A0A6850F8230008
:100CC0001044704710B5C2B1137BB3B1547BD27AD4
:100CD000240204F4E0641443C26998B202EB840273
:100CE00013888B4202D192F9020010BD05D8013859
:100CF000043280B20028F3D1F7E70020F5E710B501
:100D0000044628211CF0F0FC204610BD30B589B007
:100D10000446BDF850500695BDF84C5005959DF819
:100D2000405004959DF83C5003959DF8385002952D
:100D30009DF8345001959DF8305000950BF030FF30
:100D4000064B20462360119BA361129BE361159B18
:100D50002362169B636209B030BD00BF58F9019051
:100D600030B5164D8DB02C78BFF35B8F14F00104B5
:100D700021D128461CF090FCE8B13F230D221049F8
:100D80000793104B089406930F4B104805930123CB
:100D9000CDE9034302930423CDE90944CDE900439F
:100DA0000A23FFF7B3FF28461CF082FC084A0949D2
:100DB00006481CF094FC05480DB030BD40010020F1
:100DC000F803109048340290A8F9019044010020E3
:100DD00000000020B30C009030B5164D8DB02C787B
:100DE000BFF35B8F14F0010421D128461CF054FCA2
:100DF000E8B13F23042210490793104B089406934F
:100E00000F4B03940F48CDE904430123CDE9094476
:100E1000CDE90123009302222823FFF777FF28461C
:100E20001CF046FC084A094906481CF058FC0548D5
:100E30000DB030BD6C010020940510904434029038
:100E4000ACF901907001002000000020B30C00906C
:100E500030B5164D8DB02C78BFF35B8F14F00104C4
:100E600021D128461CF018FCE8B13F23012210498B
:100E70000793104B089406930F4B039400940F486C
:100E8000CDE904430423CDE90944CDE9013205222B
:100E90001423FFF73BFF28461CF00AFC084A0949C7
:100EA00006481CF01CFC05480DB030BD9801002020
:100EB000B00510904C340290B0F901909C010020D4
:100EC00000000020B30C0090704710B504460421C8
:100ED0001CF00AFC204610BD012908B508D003D338
:100EE000022909D0002002E000F012F8006808BDD5
:100EF00000F00EF84068FAE700F00AF88068F6E7BC
:100F000000487047C8F901900420704704207047DA
:100F100000487047C401002010B5054CFFF798FF4A
:100F20002060FFF759FF6060FFF71AFFA06010BD57
:100F3000C401002000207047002070470EB403B5A4
:100F400003AB002153F8042B01930BF047FC02B0D4
:100F50005DF804EB03B070470CB407B504AB53F86D
:100F6000042B01930BF03AFC03B05DF804EB02B0E4
:100F70007047000010B5C36B044673B3038E2BB9E2
:100F8000184BBF21184A19481DF094FAC38D00EB85
:100F900043035B8B0BB30DF047F8238E012B03D873
:100FA000134BC421134AEEE7E28D40F63F10531C69
:100FB0009BB2092B194688BFA3F10A0104EB41013A
:100FC000498B814209D10A2B04EB420228BF00233E
:100FD000508B04EB4303588351832046BDE81040F7
:100FE0000CF006BF18FA019045FB019021FA019020
:100FF00065FA019073FA01900CF0B4BE10B586B09A
:1010000002AC84E806001A460AAB21460593019318
:10101000099B0093089B0AF0ADF806B010BD0000D4
:1010200038B5D8B9114B12481B681249BBB11A68C0
:101030009C681A441C4402605A681A440A606CB1E5
:101040000D4B00221A80FFF763FF0546FFF75EFF96
:101050000A4B1C600A4B1D600A4B188038BD0A4BB6
:1010600003600A4B0B600A4B1C68E8E7D0010020C4
:10107000D4010020D8010020DC010020C82201207A
:10108000D0220120CC22012014061090F8051090E7
:1010900010061090044B1B6853F82100034B1B688B
:1010A00003EB4000704700BFD8010020D4010020AE
:1010B000012380F8741080F8753070470020704765
:1010C00000207047836B0BB10846184770474FF6F6
:1010D000FF707047406803689B691847134A0023F4
:1010E000F0B5C2F88430BFF34F8FD2F8803043F6AA
:1010F000E076C3F3C904C3F34E33A5075B0103EAEB
:10110000060C284621464CEA0007013900F1404010
:10111000C2F874724F1CF6D1203B13F1200FEED1B0
:10112000BFF34F8FBFF36F8FF0BD00BF00ED00E046
:10113000034B902283F85A2383F85823704700BF4B
:1011400000E100E0094A0A49D3680A48C3F30A03E8
:10115000013B9BB20B801169C1F30A010139018087
:101160001364536B43F001035363704700680140FD
:10117000E0010020DE010020014B986A704700BFAB
:1011800084680140024B0122996243F8602C704749
:1011900084680140034B5B69DB0301D5FFF79EBF09
:1011A000704700BF00ED00E070B5044607F011FA8B
:1011B0002368DD6D0AF076FC01462046A8472368C7
:1011C0002046054AD3F880504FF040410023AC46FA
:1011D000BDE87040604700BF00FC03C008B531B9EE
:1011E0000A4B4FF425710A4A0A481DF063F9C0E919
:1011F0000F1200324364084918BF012200330A70FD
:1012000018BF0123054A137008BD00BFF0FB019011
:1012100067FC019028FC01907622012077220120B2
:1012200007F0BEB907F0C8B908B507F085F9044B57
:101230005B69DB0303D5BDE80840FFF74FBF08BD7E
:1012400000ED00E007F0D3BA10B5044607F09CFFAC
:1012500023682046D3F8A030BDE81040184790F826
:1012600077301BB1406803681B6818471846704701
:1012700030B590F8744090F83410104B8C421A78C6
:101280000DD05AB90E4A0F4914880F480C800188B6
:101290000E4D11800122298004801A7030BD002A71
:1012A000FCD00948074A0188084D1180044A148877
:1012B000118000222C800480EFE700BF7022012003
:1012C0006C220120722201206E2201207422012052
:1012D000034B4FF080629A604FF080729A607047C3
:1012E00000E100E0084B4FF08062C3F88820BFF3B4
:1012F0004F8FBFF36F8F4FF08072C3F88820BFF31A
:101300004F8FBFF36F8F704700E100E0134B144A1B
:1013100010B51B6C1188134C8B4213D1124B1988DA
:1013200002F0DEF8226892F86630013382F8663007
:1013300000F024FA206807F027FF0020BDE81040E5
:1013400000F09BBC02F0CCF8002000F097FC206875
:101350000368BDE81040DB69184700BF0068014022
:10136000E001002078220120DE01002003685B6C90
:1013700018470120704703689B6A18470D4B82B0DD
:101380001A6B42F400021A631A6B02F40002019213
:10139000019A1A6942F400021A611A6922F40002E1
:1013A0001A61054B054A1A614FF08062044B9A603E
:1013B00002B0704700380240F8240120CD1300909D
:1013C00000E100E040F2EF3070470000024B1B6884
:1013D000586803685B6918477822012008B50B2814
:1013E0000BD8DFE800F01206100A0A0A0A080808FB
:1013F0000808012008BD0520FCE7054B6521054ACA
:1014000005481DF057F80020F4E70220F2E700BF7E
:10141000CFFC0190A4FD0190EAFC019008B50A28D8
:1014200009D8DFE800F010060E08080808060606CE
:101430000600012008BD054B8621054A05481DF020
:1014400039F80020F6E70220F4E700BFCFFC019056
:10145000F0FD0190EAFC0190F8B50C46487FFFF7DB
:10146000BDFF0546A77F3846FFF7B8FF064638465A
:10147000FFF7D4FFA38A628BD21A514B1A64A18A58
:10148000628B521A9A61A18A228B521A1A6158638E
:10149000A18AE28A42EA01425A642269DA636268F6
:1014A000DA602268402A00F0838012D8042A49D0EA
:1014B000202A7DD0237F45EA0365414B45F4003562
:1014C000DD61A27F617F914214BF3E4A40F201225A
:1014D00033E0B2F5807F1BD0B2F5007F2FD0802A99
:1014E000E8D1A068021DDA62227F45EA026545F470
:1014F0000035DD615E6222695A6102784AB3012AD1
:101500003DD0314B4FF48871304A31481CF0D2FF46
:10151000217F304A42EA0162DA61E1680A02480149
:1015200002F47802C90000F47C40C9B202430A43C5
:101530001A625E6222695A61274A1A6035E0217F89
:10154000264AE7E7227F45EA026545F40035DD617A
:10155000EFE742880125D969501E21F47F4222F02D
:10156000100242EA0022DA61154CE36943F02003DD
:10157000E361E3699B0613D500F020F9F9E7DA6926
:10158000418822F47F42257F013922F01002FF3D7D
:1015900042F0100218BF012542EA0122DA61E3E7B6
:1015A0001023A36015B10C4B2360F8BD054BFBE77E
:1015B000237F45EA0365024B45F40035C7E700BFCA
:1015C00000B0024001020100B5FC019064FD0190F1
:1015D000EAFC01900A000200010202000900020078
:1015E00010B5887F0C46FFF719FF254B5863A18A79
:1015F000E28A42EA01425A642269DA63628BA18A72
:10160000521A1A642268082A20D1A18A628B521ABF
:101610009A61A18A628B521A1A615862194A217F13
:1016200042EA0162DA61E1680A02480102F47802E2
:10163000C90000F47C40C9B202430A431A6222691D
:101640005A612269DA60104A1A6010BD0022D8611E
:101650001A61A27FE1681AB99963094B0B4AF3E753
:101660000A02480102F47802C90000F47C40C9B2C1
:1016700002430A43217F42EA01629A63EDE700BF19
:1016800000B0024009000100010202000102030053
:10169000054B4FF080620360044BC3F88820BFF312
:1016A0004F8FBFF36F8F70471CFD019000E100E08A
:1016B00010B50446FFF7ECFF4FF4426120461CF0E2
:1016C00013F8204610BD000070B505460A4B0C30DB
:1016D00000262C46602268602E726E7244F8203B11
:1016E000214607F0BFFE05F54263E6602034A342C1
:1016F000FBD1284670BD00BF1CFD019001210022D6
:1017000008B5084605F0BCF90A4B186028B90A4B21
:1017100027210A4A0A481CF0CDFE0022042101209C
:1017200005F078FA074B186018B9074B2B21034ACC
:10173000F0E708BDE80100203DFE0190F1FE0190B8
:1017400086FE0190E4010020AFFE0190024B4FF0B5
:10175000FF31186805F0EAB9E8010020014B18686C
:1017600005F020BAE8010020024B0021186805F0BE
:10177000DDB900BFE8010020FFF7F0BF00230348F8
:1017800003491A46006805F08BBA00BFE401002047
:101790000400002013B50023074C01A91A46206855
:1017A00005F0C0FA4FF0FF33002201A9206805F0D0
:1017B000B9FA02B010BD00BFE401002005F028B95D
:1017C000704770477047012070470C2070470C230A
:1017D00003FB0100083070470C2303FB01000830B5
:1017E0007047012070474FF44A7070474FF44A73B6
:1017F00003FB0100083070474FF44A7303FB0100FC
:1018000008307047012070471020704700EB01102E
:101810000830704700EB0110083070470846FFF7AA
:101820005FB90000034B10B50446036006F0C0FA30
:10183000204610BD90FF019010B50446FFF7F2FF5F
:10184000142120461BF050FF204610BD034B10B55D
:101850000446036006F0ACFA204610BD5CFF019020
:1018600010B50446FFF7F2FF4FF44C7120461BF011
:101870003BFF204610BD0000034B10B5044603603B
:1018800006F096FA204610BD28FF019010B50446D8
:10189000FFF7F2FF182120461BF026FF204610BD5F
:1018A000084B10B50446036000F55770FFF7BAFF08
:1018B00004F12C00FFF7CAFF04F11400FFF7DCFF6E
:1018C000204610BDC4FF019010B50446FFF7E8FFA5
:1018D00040F2CC4120461BF007FF204610BD00001F
:1018E0002DE9F341FFF70CFB00240546FFF70CFB45
:1018F000234601462246284600940CF099FE274BC9
:10190000274A2046274D1A60FFF78AFB26480CF02D
:10191000D1FD2B78BFF35B8FDB0738D428461BF053
:10192000BBFE002833D0214C214B04F55D7604F139
:10193000140004F12C0804F557776060C4F808809F
:10194000E7602661236006F035FA1A4B4046636172
:1019500006F030FA184B3846E36206F02BFA174BC4
:1019600004F55C70C4F85C33FEF758FE224604F5BB
:101970005C713046FEF784FE3046FFF7B1F828462A
:101980001BF096FE0E4A0F4920461BF0A8FE0E489B
:1019900002B0BDE8F04100F0D5B800BFD42201206C
:1019A0005C130020EC01002008000020F001002062
:1019B000C4FF019028FF01905CFF019090FF01900F
:1019C00000000020A1180090E0120020014800F063
:1019D000DBB800BFE012002010B5044604211BF064
:1019E00083FE204610BD10B5044678211BF07CFE16
:1019F000204610BD10B504467C211BF075FE204624
:101A000010BD0000F8B53A4C3A4D3B4B22463B4FD7
:101A100028463B492B601BF062FE3A4E3846FFF7E2
:101A200053FE2246384938461BF059FE30460FF027
:101A30005BFF2246354930461BF051FE22463449B1
:101A400034481BF04CFE3448002301223349C56062
:101A5000038580F82A30C362038680F8483080F816
:101A6000492080F84A3080F84B3041664FF4F071DD
:101A700080F8683080F8693080F86A3080F86B3020
:101A8000274DC0E90176C0E90433C0E90633C0E957
:101A90000833C0E90E33C0E91033C0E91333C0E99D
:101AA0001533C0E9173380F86C3080F8772080F860
:101AB00078201C4A036710601B4A80F8743011803C
:101AC0004FF4887280F875302A80184D80F876308F
:101AD0002B70174D80F834302980164B164903605F
:101AE0000A8022461549BDE8F8401BF0F8BD00BF4A
:101AF00000000020BC060020F0000290C00600207C
:101B0000C11700906013002091160090C317009039
:101B1000C90E009008000020E01200200100000122
:101B20006E220120782201206C22012070220120E7
:101B300072220120D8FF019074220120C517009065
:101B40007047000038B5044600F096F82046FFF7CD
:101B50002BFB2368094A4FF04041D3F880502046C0
:101B6000074BA8470023074D84F84A30284600F069
:101B7000B9F80123256184F86C3038BD00FC03C03E
:101B800000F807C0D813002008B5036804469B6F0F
:101B90009847236820461B6F9847FFF7FBFD236893
:101BA00020469B6E98474FF48051074802F0CDFEC7
:101BB0000821064802F0C9FEFFF7ECFD2368204625
:101BC0009B6E9847F8E700BF0020024000280240C3
:101BD000FFF7D2BAFFF7D6BAF8B5FFF725FB134ADD
:101BE0000023C2F88430BFF34F8FD2F8803043F621
:101BF000E076C3F3C904C3F34E33A5075B0103EAE0
:101C0000060C284621464CEA0007013900F1404005
:101C1000C2F874724F1CF6D1203B13F1200FEED1A5
:101C2000BFF34F8FBFF36F8FF8BD00BF00ED00E033
:101C3000FFF77EBAFFF74CBBFFF754BBFFF782BA42
:101C400006F074BC10B504460C211BF04DFD204677
:101C500010BD000004480023044A43608360044B25
:101C6000044903601BF03BBDD81300200000002096
:101C700034010290411B00907047704770477047D5
:101C800030B58DB00D46144600212C2201A81CF061
:101C900086FC01A805F006FE9DF8040030B1BDF8F1
:101CA000063001202B60BDF8103023600DB030BD30
:101CB00008B54FF488714FF4F07005F09BFD28B122
:101CC000034B1D21034A04481CF0F4FB08BD00BF70
:101CD0009C00029000010290BD0002904068704795
:101CE00041607047094A136843F080731360A2F59E
:101CF0004E42074B4C3A11680B431360A2F57B62CE
:101D0000136843F001031360704700BFFCED00E06F
:101D100055CEACC5521A02EB5302B2FBF3F070473A
:101D2000014B1868704700BF041000E010B503684D
:101D300004461B6931B19847A26863689B1A18442E
:101D4000606010BD9847A060FBE7000014490020C8
:101D5000D1F8883043F47003C1F88830114B1A6809
:101D600042F001021A6098601A6822F0847222F42C
:101D700080321A600C4A5A601A6822F480221A6073
:101D8000D8609A6B42F001029A634FF020421368C8
:101D900023F0010313604FF010438B60704700BFC6
:101DA00000ED00E0003802401030002408B5642047
:101DB00004F04CFEFBE7000030B5B5B03022002146
:101DC000012507A802241CF0EAFB1422002102A826
:101DD0001CF0E5FB8422002113A81CF0E0FB274B3C
:101DE0004FF0190C07A81A6C42F080521A641B6C51
:101DF00003F080530093009B214B1A6842F4404249
:101E00001A601B6803F440430193019B4FF4803335
:101E1000CDE907534FF48003CDE90D434FF4D87358
:101E2000CDE91144CDE90FC301F00AFC00B1FEE792
:101E300001F076FB00B1FEE70F2304904FF4A050B1
:101E40000721CDE902344FF48053CDE9050302A800
:101E500001F0D8FD00B1FEE748231B9024901393B6
:101E6000642318930523CDE91D5013A8CDE9194328
:101E700000F0ACFE00B1FEE735B030BD00380240E6
:101E80000070004080B598B01022002101240BA8FA
:101E90001C261CF084FB032502F0ECFA4FF0005CDA
:101EA000AF4B0BA8ADF82C4040F20117CDE90CC3A5
:101EB000AC4B0E9302F000FB8DF82D404FF04043E9
:101EC00000240BA80C938DF834608DF83740ADF8E2
:101ED0003A4002F0F1FA02230BA88DF837508DF842
:101EE0002D301623ADF83A708DF8343002F0E4FA54
:101EF0004FF010430BA88DF8346004260C938DF836
:101F00002D508DF83740ADF83A4002F0D5FA17233E
:101F10000BA88DF82D608DF834308DF83750ADF862
:101F20003A7002F0C9FA05230BA88DF838408DF8F5
:101F30002D3013238DF8343002F0BEFA304602F013
:101F4000A9FABFF34F8FBFF36F8F874BC3F850428F
:101F5000BFF34F8FBFF36F8F5A6942F400325A615B
:101F6000BFF34F8FBFF36F8FC3F88440BFF34F8F22
:101F7000D3F8802043F6E076C2F3C904C2F34E32B0
:101F8000A507520102EA060C2846214640EA0C0742
:101F9000013900F14040C3F860724F1CF6D1203A7D
:101FA00012F1200FEED1BFF34F8F5A6942F4803205
:101FB0005A61BFF34F8FBFF36F8F00F0A5FB002472
:101FC000FFF7FAFE142200210BA81CF0E8FA674B79
:101FD000082167481A6B012542F010021A631A6B38
:101FE00002F010020092009A1A6B42F002021A6389
:101FF0001A6B02F002020192019A1A6B42F040023F
:102000001A631A6B02F040020292029A1A6B42F4AF
:1020100000721A631A6B02F400720392039A1A6B2D
:1020200042F008021A631A6B02F008020492049A42
:102030001A6B42F480621A631A6B02F48062059292
:10204000059A1A6B42F020021A631A6B02F0200202
:102050000692069A1A6B42F480721A631A6B02F4A3
:1020600080720792079A1A6B42F001021A631A6B88
:1020700002F001020892089A1A6B42F080021A6379
:102080001A6B02F080020992099A1A6B42F004025C
:102090001A6300221B6B03F004030A930A9B02F0ED
:1020A0004FFC00224FF48051324802F049FC0823D3
:1020B0000BA92F48CDE90B35CDE90D4402F0C4FA48
:1020C0004FF480532B480BA9CDE90B35CDE90D44D6
:1020D00002F0BAFA2848294B848003600562C0E9FF
:1020E000054401F017F800B1FEE7254C254BC4E983
:1020F0000200C4E90030C4E90A00C4E90C0020462B
:1021000002F02CFC00B1FEE72946204602F0E6FC76
:1021100000B1FEE71C4B04211C4A40249860C3E92F
:1021200000201022C3E9031280211192C3E9054166
:10213000C3E90700C3E909000BA91846CDE90B2242
:10214000CDE90D22CDE90F2201F022FA00B1FEE720
:1021500005F038FB05F0E8FA0546C8B1FEE700BF18
:10216000120000030100010100ED00E00038024010
:102170000028024000200240A42301200030024039
:10218000F824012000B0024038250120400100A0C1
:10219000342201460BA8374C1CF001FA364B282696
:1021A000352740F2152C40F2352E25612046A586B4
:1021B00084F83650C4E900350923C4E905630B23CC
:1021C000C4E9077340F21B13C4E909C340F21D13AD
:1021D000C4E90255C4E90BE301F07CF8024600B102
:1021E000FEE74FF4F0714FF488730B904FF4806565
:1021F0001693ADF85C208DF85E20CDE90C1002201E
:10220000CDE90E30FF20CDE910020520CDE91421E3
:10221000CDE912500BA9204601F039F900B1FEE7D3
:10222000164B4FF4E132164918615862C3E90012A7
:102230000C22C3E90200C3E90520C3E907001846E0
:1022400000F094FC00B1FEE702F045FE04F050FB04
:102250000C4A00210C4804F085FB0C4B0C4A002171
:1022600018600C4804F07EFB0B4B186004F05AFB1E
:10227000FEE700BFC823012000680140742401204C
:102280000010014090010290AD1D0090A02301209C
:102290006C010290DB4E0090702401200268034B19
:1022A0009A4201D100F046BA704700BF00100040CA
:1022B00010B5014688B00022362002F087F836209B
:1022C00002F0B6F8144B01A903A81A6C134C42F0A3
:1022D00010021A641B6C03F010030293029B01F0BE
:1022E00053FC01F031FC0E4B4000236040F2E73319
:1022F000E3600C4BB0FBF3F0013800236060204634
:102300002361A36002F094FD20B9204602F032FC64
:1023100008B010BD0120FBE7003802406C25012009
:102320000010004040420F000D4B82B00F216FF0B3
:1023300001001A6C42F080521A641A6C02F080524A
:102340000092009A5A6C42F480425A6400225B6CFC
:1023500003F480430193019B02B002F037B800BF41
:1023600000380240026882B0084B9A420BD1D3F881
:10237000302803F5006342F480521A631B6B03F4A8
:1023800080530193019B02B0704700BF00300240B0
:1023900007B50E4B02689A4215D1A3F5F04305210B
:1023A0005A201A6B42F400021A6300221B6B03F4DA
:1023B00000030193019B02F009F85A2003B05DF875
:1023C00004EB02F035B803B05DF804FB00B0024046
:1023D00070B58CB004461422002107A81CF0DFF869
:1023E00022683E4B9A4277D103F5504302240E26D1
:1023F00007A95A6C00253A4842F080625A645A6C28
:1024000002F080620192019A1A6B42F010021A6384
:102410001A6B02F010020292029A1A6B42F40072D6
:102420001A631A6B02F400720392039A1A6B42F455
:1024300080621A631A6B02F480620492049A1A6B27
:1024400042F040021A631A6B02F040020592059AAC
:102450001A6B42F480721A631B6B03F48073069349
:10246000069B1023CDE907340A940B9602F0ECF892
:102470004EF6FF7307A91B480B96CDE90734CDE94B
:10248000095402F0E1F8F72307A917480B96CDE9A4
:102490000734CDE9095402F0D7F84FF4805307A967
:1024A0001248CDE907340923CDE909540B9302F012
:1024B000CBF84FF4464307A90D480B96CDE90734F6
:1024C000CDE9095402F0C0F858202A46052101F050
:1024D0007DFF582001F0ACFF0CB070BD00680140DA
:1024E0000010024000240240002802400018024070
:1024F0000020024070B588B004461422002103A8D1
:102500001CF04DF822681D4B9A4234D103F59433E8
:102510000226032507245A6C03A9194842F0100229
:102520005A645A6C02F010020092009A1A6B42F040
:1025300002021A631A6B02F002020192019A1A6BEC
:1025400042F001021A631B6B03F001030293029B2A
:102550008023CDE90654CDE9033602F075F84FF437
:10256000007303A907480794CDE903360023CDE99A
:10257000053502F069F808B070BD00BF00100140D9
:102580000004024000000240F0B587B01422002190
:1025900001A81CF004F82A4B1E68002E4ED101221F
:1025A000022703250C241A6001A9264B26489A6BA2
:1025B00042F001029A639B6B03F001030093009BBE
:1025C0004FF68373CDE90454CDE9013702F03CF8AE
:1025D00048F2331301A91D480594CDE90137CDE92F
:1025E000036502F031F84CF2037301A91848059411
:1025F000CDE90137CDE9036502F026F84FF63F0338
:1026000001A914480594CDE90137CDE9036502F02D
:102610001BF8242301A910480594CDE90137CDE921
:10262000036502F011F804230C480DEB0301059437
:10263000CDE90137CDE9036502F006F807B0F0BD3A
:10264000E813002000380240001002400018024049
:10265000000C024000140240001C0240000802402E
:1026600008B5144B1A6822BB01224FF68371124839
:102670001A60124A936B23F00103936302F0C6F8C9
:1026800048F233110E4802F0C1F84CF203710D48C4
:1026900002F0BCF84FF63F010B4802F0B7F82421D6
:1026A0000A4802F0B3F804210948BDE8084002F0E6
:1026B000ADB808BDE413002000100240003802400D
:1026C00000180240000C024000140240001C0240AE
:1026D0000008024070477047FEE7FEE7FEE7FEE7AE
:1026E00070470000014802F089BA00BF6C25012044
:1026F000014800F06BBE00BFC8230120014802F072
:102700005DB900BFF824012008B5094B03201A6801
:1027100042F400721A601A6842F480721A6001F082
:1027200043FE0020FFF7C4FDFFF7FEFD002008BDBB
:10273000003C0240034A044B11681B780B441360B1
:10274000704700BFB825012010000020014B186819
:10275000704700BFB825012038B50446FFF7F6FFE3
:102760000546631C1EBF044B1B78E418FFF7EEFF01
:10277000401BA042FAD338BD1000002010B504461B
:1027800001682269A3680868134362691343E26918
:102790001343874A024013430B602268E168536881
:1027A00023F440530B4353602168A3698A68206A6D
:1027B00022F43062034313437E4A8B6023689342C2
:1027C00015D17D4B7D4AD3F8903003F00303D35CE1
:1027D000E269B2F5004F40F0B680082B00F2A58008
:1027E000DFE803F0878F95A392A3A3A3A500744A03
:1027F000934206D1704B734AD3F8903003F00C0328
:10280000E5E7714A934210D16B4BD3F8903003F057
:102810003003102B6BD002D8002BD9D033E0202B03
:1028200063D0302B2FD10823D2E7684A93420BD1D3
:10283000614BD3F8903003F0C003402B57D0EBD955
:10284000802B52D0C02BEDE7614A93420ED15A4BF8
:10285000D3F8903003F44073B3F5807F47D0DBD9D1
:10286000B3F5007F41D0B3F5407FDBE7594A93428F
:1028700013D1514BD3F8903003F44063B3F5806F1C
:1028800035D002D83BB11023A2E7B3F5006F2CD0AE
:10289000B3F5406FC6E701239AE74F4A934212D13E
:1028A000454BD3F8903003F44053B3F5805F1ED00E
:1028B00003D8002BE7D100238AE7B3F5005F14D0DB
:1028C000B3F5405FAEE7454A9342DCD13A4BD3F8CB
:1028D000903003F44043B3F5804F08D09CD9B3F552
:1028E000004F02D0B3F5404F9CE7022370E704236A
:1028F0006EE701F029F958B900200023C4E9193323
:1029000010BD01F031F9F6E701F04EF8F3E7344875
:102910006268530803EB4000B0FBF2F083B24FF65D
:10292000EF72A3F11001914204D90120E5E74FF4C1
:102930000040EDE720F00F00C3F34203226880B2AD
:102940001843D060D8E7082BEFD801A252F823F043
:1029500097290090A1290090AD2900902B29009083
:10296000A72900902B2900902B2900902B2900905B
:10297000752900904FF40040636800EB5300B0FBF2
:10298000F3F080B24FF6EF73A0F110029A42CCD868
:102990002368D860B0E701F0D7F80028ECD1ABE7A6
:1029A00001F0E2F8F9E700F0FFFFF6E70C48E3E793
:1029B000F369FFEF0010014000380240CD010290A2
:1029C00000440040D101029000480040004C00400B
:1029D000005000400014014000780040007C00409E
:1029E0000024F400436ADA0706D50268816A536856
:1029F00023F400330B435360436A9B0706D50268F8
:102A0000C16A536823F480330B435360436A590708
:102A100006D50268016B536823F480230B4353608F
:102A2000436A1A0706D50268416B536823F40043D2
:102A30000B435360436ADB0606D50268816B9368DB
:102A400023F480530B439360436A990606D50268CA
:102A5000C16B936823F400530B439360436A5A0697
:102A600011D50268016C536823F480130B43536043
:102A7000036CB3F5801F06D10268416C536823F4E0
:102A8000C0030B435360436A1B0606D50268816C82
:102A9000536823F400230B43536070472DE9F04142
:102AA000069D04460F46164698462168CA6937EACD
:102AB00002030CBF01220022B24201D0002019E023
:102AC000681CF3D0FFF742FEA0EB0800A842206884
:102AD000036800D885B923F4D07303602268936833
:102AE00023F0010393602023A367E36700230320FF
:102AF00084F87430BDE8F0815A07D6D5C3691B0548
:102B0000D3D54FF4006303622268136823F4D073B3
:102B100013602268936823F0010393602023A36766
:102B2000E367C4F88030E1E737B500250446C0F814
:102B30008050FFF70BFE226803461268120708D484
:102B400020230020A36784F87400E367206603B0A5
:102B500030BD6FF07E424FF40011204600922A46AD
:102B6000FFF79CFF0028EBD00320F0E710B50446E8
:102B700050B3836F1BB980F87430FFF7BBFC226839
:102B800024232046A367136823F001031360FFF793
:102B9000F5FD012818D0636A13B12046FFF722FF24
:102BA00022682046536823F4904353602268936858
:102BB00023F02A0393602268136843F00103136033
:102BC000BDE81040FFF7B0BF012010BD2DE9F7436D
:102BD0000668044616F001060CD0B34B9A6822F43E
:102BE00000029A609A68416B0A439A60466BB6FA93
:102BF00086F67609256815F4002511D0AA4AE16BFE
:102C0000D2F88C3023F440130B43C2F88C30E56BC0
:102C1000B5F5801F13BFB5FA85F5002501266D09AE
:102C20002368DF0210D5A04A216CD2F88C3023F43F
:102C300040030B43C2F88C30236CB3F5800F00F0D7
:102C40009B81002B08BF0125236813F0807F18BFEC
:102C50000126980632D5944B944F1A6C42F080525C
:102C60001A641B6C03F080530193019B3B6843F48F
:102C700080733B60FFF76AFD80463B68D90540F1F1
:102C80007D81894F3B6F13F4407340F08281226B4A
:102C900002F44073B3F5407F834B40F0A081996804
:102CA00022F0704221F4F81122F440720A439A6033
:102CB000226B196FC2F30B020A431A672368D80606
:102CC0000CD5794BD3F88C2022F08072C3F88C207D
:102CD000D3F88C20A16B0A43C3F88C2023685904D5
:102CE00008D5714A616ED2F8903023F440330B431B
:102CF000C2F8903023681A0408D56B4AA16ED2F846
:102D0000903023F440230B43C2F890302368DB0358
:102D100008D5654AE16ED2F8903023F440130B4396
:102D2000C2F8903023689F0308D55F4A216FD2F81C
:102D3000903023F440030B43C2F8903023685806C8
:102D400008D5594A616CD2F8903023F003030B4345
:102D5000C2F890302368190608D5534AA16CD2F8FE
:102D6000903023F00C030B43C2F890302368DA054F
:102D700008D54D4AE16CD2F8903023F030030B4374
:102D8000C2F8903023689B0508D5474A216DD2F8D8
:102D9000903023F0C0030B43C2F8903023685F05E6
:102DA00008D5414A616DD2F8903023F440730B434B
:102DB000C2F890302368180508D53B4AA16DD2F8B7
:102DC000903023F440630B43C2F890302368D90459
:102DD00008D5354AE16DD2F8903023F440530B43C7
:102DE000C2F8903023689A0408D52F4A216ED2F891
:102DF000903023F440430B43C2F8903023685B02C9
:102E000008D5294AA16FD2F8903023F080630B4394
:102E1000C2F8903023689F020DD5234AE16FD2F8A3
:102E2000903023F000630B43C2F89030E36FB3F1AE
:102E3000006F08BF0125236813F0080F18BF012594
:102E4000580308D5184A616FD2F8903023F04073C8
:102E50000B43C2F890302368190209D5124AD4F8FE
:102E60008010D2F8903023F080530B43C2F890309A
:102E7000012E00F0B88023689A0100F1B480012D82
:102E800078D1094D2B6823F080532B60FFF75EFC4F
:102E900006462B689F0000F12D8123681D0307D58E
:102EA000E26B4AB104E000BF00380240007000400D
:102EB000D8021DD5236CDBB99549D1F88830D1F8FB
:102EC000882003F4403302F0E0421343626943EA8E
:102ED0008213A26943EA0263C1F88830D1F88C30CA
:102EE000A26A23F4F853013A43EA0223C1F88C3072
:102EF0002368990215D5E36FB3F1006F11D1844AAD
:102F0000D2F88830D2F8881003F0706301F0E04105
:102F10000B43616943EA8113216A43EA0143C2F822
:102F2000883023681A0719D57949D1F88820D1F853
:102F3000883002F0706203F440331343626943EA5D
:102F40008213E26943EA0273C1F88830D1F88C3009
:102F5000E26A23F440331343C1F88C306C4C23688D
:102F600043F080532360FFF7F1FB054623689B0085
:102F700040F1C780002009E0012665E6FFF7E6FB87
:102F8000A0EB080064287FF678AE032003B0BDE80C
:102F9000F083226B02F4407293423FF478AE3B6FB1
:102FA0003A6F23F4407342F480323A673A6F22F466
:102FB00080323A673B673B6FDA077FF568AEFFF711
:102FC000C5FB41F2883980463B6F9B073FF55FAEFA
:102FD000FFF7BCFBA0EB08004845F5D9D5E79A6898
:102FE00022F4F81263E64A4E336823F080633360BC
:102FF000FFF7ACFB074633681B0175D42368DF0776
:1030000012D5636B83B9D6F88430D6F8842003F4E4
:10301000403302F070621343626843EA8213A2688D
:1030200043EA0273C6F8843023681E0303D5E26BBB
:10303000B2F5801F05D0D8021ED5236CB3F5800FE2
:103040001AD1334AD2F88430D2F8841003F44033D2
:1030500001F0E0410B43616843EA8113E16843EA10
:103060000163C2F88430D2F88C10636A21F01F012A
:10307000013B0B43C2F88C302368D90111D5244A97
:10308000D2F88430D2F8841003F0706301F0E0418C
:103090000B43616843EA8113216943EA0143C2F8A3
:1030A000843023689A010DD5236962681B0443EAC2
:1030B0008213E26843EA0263A26843EA0273144A95
:1030C000C2F88430124E336843F080633360FFF7F8
:1030D0003DFB074633681B013FF5D1AEFFF736FBDA
:1030E000C01B6428F6D950E7FFF730FBC01B6428EB
:1030F00081D94AE7FFF72AFB801B64287FF6C9AE17
:1031000043E7FFF723FB401B64287FF62FAF3CE724
:103110000038024010B5044608B9012010BD437FB5
:1031200003F0FF0213B90277FFF71CF9022363775C
:103130002379FBB92368144A5A612268936823F003
:103140001803936062792368E2B94FF0FF321A6185
:10315000002022686169936823F060030B43936049
:103160002268A169936823F080030B4393600123D5
:103170006377D3E7D4E90212204601F089FE0028E4
:10318000E0D0CAE72269E2E7B71DC104F0B5D20179
:1031900005684C68EB688432C3F30B4315441C4448
:1031A0006B6803F470436B6005680E68EB68154448
:1031B0000136C3F30B43334443EA04436B600568B1
:1031C000CC68EB68C3F30A031C44AB189D6805F494
:1031D00070459D6005688B68EE6815440133C6F341
:1031E0000A06334443EA0443AB60002503681344F2
:1031F0001C6924F007041C6103680C6913441C61FA
:10320000046891F83260144491F83170D1F818C014
:10321000A369A561046891F83030144443EA0C6353
:1032200043EA072343EA0643A361036813445C6946
:1032300024F0FF045C6103684C6913445C6104681A
:103240001444E36923F4E06323F00703E3610368B4
:10325000D1E9074613443443DC61036813449C6A94
:103260009D6203684C6A13449C620B6963B3012B33
:103270002CD09C1E022C2BD9072B14BF0124022416
:1032800003681344DD6A05F0E025DD6203689D18DC
:10329000D1E900639B1B8E6A63437443033343EAA3
:1032A0000443EB6204681444236B23F4FF6323F0AC
:1032B000070323630368C96A1344196301688B58C1
:1032C00043F001038B50F0BD0424D9E70324D7E772
:1032D0000224D5E738B50446002870D090F8A13014
:1032E00003F0FF021BB980F8A020FFF771F82268F5
:1032F000022384F8A130936923F07043936122681C
:10330000D4E9013091690343E06803432069034332
:103310000B43936121682B4A8B6813408B602168B3
:1033200060698B6843EA0043A06903438B602168AE
:10333000CB681340CB602168E069CB6843EA004367
:10334000206A0343CB6021680B6913400B6121683D
:103350000B69606A43EA0043A06A03430B6121687A
:103360004B691A404A612268E16A536943EA0143A2
:10337000216B0B435361216894F83600CA6A94F8B4
:10338000355002F07F42CA62226894F83430D16A24
:103390000B4343EA052343EA00430020D36222683B
:1033A000536B43F0060353632268936943F00103B0
:1033B00093610123C4F8A40084F8A13038BD012032
:1033C000FCE700BF00F800F07047704770B5036875
:1033D00004469E6B5D6B720715D5690713D55A6B52
:1033E00022F004025A6304220368DA63D0F8A4309E
:1033F00043F00103C0F8A430002380F8A12080F836
:10340000A030FFF7E1FFB20717D5AB0715D522684B
:103410002046536B23F00203536302222368DA63CE
:10342000D4F8A4301343C4F8A430042384F8A130A2
:10343000002384F8A030FFF7C7FFF00711D5E90794
:103440000FD522682046536B23F0010353630123F9
:103450002268D36384F8A130002384F8A030FDF7FC
:1034600055FF320712D52B0710D522682046536B23
:1034700023F00803536308222368DA63012384F8E6
:10348000A130002384F8A030FFF79FFF70BDF8B58E
:1034900090F8A03006468C469646012B4FF002006D
:1034A0001DD0342401270D4686F8A10004FB0264D8
:1034B00086F8A07038340FCD0FC40FCD0FC40FCDD8
:1034C0000FC42B683046724661462360FFF75EFEEC
:1034D000336800205F6286F8A17086F8A000F8BD0E
:1034E00010B590F8A030012B4FF0020314D00468FF
:1034F000012280F8A13080F8A020636B23F0010343
:103500006363064B196401684B6B13434B630023E1
:1035100080F8A12080F8A030184610BD0068014056
:10352000194B37B51A6C194C42F080521A641B6C57
:1035300003F080530193019B236843F4803323609D
:10354000FFF704F905466368DA030CD5236843F4F2
:1035500000332360FFF7FAF80C4C054663689B03C1
:103560000AD5002006E0FFF7F1F8401BB0F57A7F9E
:10357000E9D9032003B030BDFFF7E8F8401BB0F5F0
:103580007A7FEBD9F5E700BF0038024000700040B9
:1035900038B50D460446C8B190F82C3003F0FF0250
:1035A0001BB980F82D20FEF7EFFF0223211D2068B4
:1035B00084F82C3000F0A6FF62682946206800F0ED
:1035C000D7FF0123002084F82C3038BD0120FCE710
:1035D00010B50446FFF744F8D4E9000101F00CF8F7
:1035E000002084F82C0084F82D0010BD38B5044666
:1035F00090F82C000D46C0B202280DD0022320689E
:1036000084F82C3001F007F82B680020022B0CBF47
:103610000523012384F82C3038BD10B5044690F8FA
:103620002C00C0B2022809D00223206884F82C3074
:1036300001F003F80123002084F82C3010BD0000B5
:103640002DE9F341044608B9012041E00368D80799
:1036500010D4236899075CD42368190700F1A1806E
:1036600023685A0700F1C280A069002840F0288131
:1036700000202DE0904B9A6802F00C02042A07D03B
:103680009A6802F00C02082A0AD15B685A0207D530
:10369000894B1B689B03DCD56368002BD9D1D3E72A
:1036A0006268854BB2F5803F15D11A6842F48032CA
:1036B0001A60636803B3FFF749F87F4D06462B682D
:1036C0009F03C6D4FFF742F8801B6428F7D9032074
:1036D00002B0BDE8F0813AB91A6822F480321A606B
:1036E0001A6822F48022E3E7B2F5A02F1A68F4D119
:1036F00042F480221A60D8E7FFF728F86E4D06469C
:103700002B689803A5D5FFF721F8801B6428F7D90B
:10371000DDE7694B9A6812F00C0F07D09A6802F047
:103720000C02082A11D15B6859020ED4624B1A6848
:10373000920702D5E268012A86D11A68216922F02F
:10374000F80242EAC1021A6086E7E3685A4DBBB14B
:103750002B6843F001032B60FEF7F8FF06462B6849
:103760009F0707D52B68226923F0F80343EAC203B9
:103770002B6071E7FEF7EAFF801B0228EFD9A6E76E
:103780002B6823F001032B60FEF7E0FF06462B6851
:1037900098077FF561AFFEF7D9FF801B0228F6D9A5
:1037A00095E76369444D83B16B6F43F001036B6729
:1037B000FEF7CCFF06466B6F9B073FF551AFFEF758
:1037C000C5FF801B0228F6D981E76B6F23F0010348
:1037D0006B67FEF7BBFF06466B6F9F077FF540AF39
:1037E000FEF7B4FF801B0228F6D970E7324B1A6C43
:1037F000D0002AD41A6C012642F080521A641B6C45
:1038000003F080530193019B2C4D2B68D9051ED5E5
:10381000A268294B012A2AD11A6F42F001021A67C5
:10382000A368002B39D0FEF791FF234D074641F2E4
:1038300088382B6F9B072AD5002E3FF415AF1E4A00
:10384000136C23F0805313640EE70026DCE72B682B
:1038500043F480732B60FEF779FF07462B68DA0587
:10386000D6D4FEF773FFC01B6428F7D92FE73AB907
:103870001A6F22F001021A671A6F22F00402CEE7D3
:10388000052A1A6FF5D142F004021A67C4E7FEF761
:103890005DFFC01B4045CCD919E7FEF757FF064D29
:1038A000074641F288382B6F9807C5D5FEF74EFFC3
:1038B000C01B4045F7D90AE70038024000700040BD
:1038C000384DAB6803F00C03082B41D02B6802285D
:1038D00023F080732B602ED1FEF738FF06462B684D
:1038E000990122D4D4E907321343626A43F00053AA
:1038F00043EA8213E26A43EA0263A26A294C52084D
:10390000013A43EA02436B602B6843F080732B60FB
:10391000FEF71CFF054623689A013FF5A9AEFEF7A6
:1039200015FF401B0228F6D9D1E6FEF70FFF801BDA
:103930000228D4D9CBE6FEF709FF04462B689B0189
:103940007FF596AEFEF702FF001B0228F6D9BEE611
:1039500001286B683FF4BCAE03F48002E1698A423F
:103960007FF472AE03F03F02216A8A427FF46CAEAC
:1039700047F6C072616A1A40B2EB811F7FF464AEF1
:10398000A26A03F440315208013AB1EB024F7FF4CE
:103990005BAEE26A03F07063B3EB026F14BF012009
:1039A000002095E600380240134908B58B6803F003
:1039B0000C03042B03D0082B03D0104800E0104860
:1039C00008BD4A684B68496802F03F0213F480035F
:1039D000C1F388111ABF0A4800230848A1FB00015F
:1039E000FCF716FC044B5B68C3F3014301335B0037
:1039F000B0FBF3F0E4E700BF003802400024F4001D
:103A000040787D012DE9F0410D46044610B90120B2
:103A1000BDE8F081474A136803F00F038B422AD3B5
:103A200023689E0732D42368D90746D4414A1368D5
